:020000040800F2
:1000000000000220ED0F0008351000083510000830
:1000100035100008351000083510000800000000F9
:100020000000000000000000000000003510000883
:1000300035100008000000003510000835100008D9
:10004000351000083510000835100008351000087C
:10005000351000083510000835100008351000086C
:10006000351000083510000835100008351000085C
:10007000351000083510000835100008351000084C
:10008000351000083510000835100008351000083C
:10009000351000083510000835100008351000082C
:1000A000351000083510000835100008351000081C
:1000B000351000083510000835100008351000080C
:1000C00035100008351000083510000835100008FC
:1000D00035100008351000083510000835100008EC
:1000E00035100008351000083510000835100008DC
:1000F00035100008351000083510000835100008CC
:1001000035100008351000083510000835100008BB
:1001100035100008351000083510000835100008AB
:10012000351000083510000835100008351000089B
:10013000351000083510000835100008351000088B
:10014000351000083510000835100008351000087B
:10015000351000083510000835100008351000086B
:10016000351000083510000835100008351000085B
:10017000351000083510000835100008351000084B
:080180003510000835100008DD
:1001880010B5054C237833B9044B13B10448AFF3C9
:1001980000800123237010BD7004002000000000BF
:1001A80040130008084B10B51BB108490848AFF3C5
:1001B80000800848036803B910BD074B002BFBD02B
:1001C800BDE81040184700BF00000000740400207C
:1001D800401300086C04002000000000154B002BA1
:1001E80008BF134B9D46A3F5803A00218B460F4666
:1001F8001348144A121A00F053FF0F4B002B00D07B
:1002080098470E4B002B00D098470020002104008F
:100218000D000D48002802D00C4801F005F800F048
:1002280017FF2000290000F0B9FE00F001FF00BF11
:1002380000000800000000000000000000000000AE
:100248007004002090040020311200083D120008BC
:1002580039493A4BD1F88820394842F47002C1F83C
:1002680088201A68002142F001021A6099601A6811
:1002780022F0847222F480321A6058601A6882B0C0
:1002880022F480221A60D960009101911A6842F420
:1002980080321A601A4603E0009BB3F5A04F09D0DC
:1002A800136803F400330193009B01330093019B0F
:1002B800002BF1D0214B1B6813F4003318BF012326
:1002C8000193019B012B05D01B4B4FF000629A60F4
:1002D80002B07047194B1B491A6C1B4842F08052F8
:1002E8001A640A6842F440420A609A689A609A68F6
:1002F80042F400429A609A6842F4A0529A605860A8
:100308001A6842F080721A601A4611680B4B89010C
:10031800FBD50E4A40F2056111609A6822F003028B
:100328009A609A6842F002029A601A46936803F04B
:100338000C03082BFAD1C7E700ED00E000380240B3
:10034800103000240070004019544007003C02405F
:100358001848836803F00C03042B28D0082B09D015
:10036800154B144A15499268C2F303128A5CD340AC
:100378000B6170474368416813F4800F436818BFE6
:100388000F4801F03F020CBF0B49B0FBF2F1C3F379
:10039800881308BFB1FBF2F101FB03F2054B5B6860
:1003A800C3F3014301335B00B2FBF3F3D9E7044B1A
:1003B800D7E700BF003802400024F4000400002002
:1003C80000127A0030B50F4C054683B054F820006F
:1003D800012104EB450400F06DFB0B4A238A52F817
:1003E8002500009302220123002469468DF8043079
:1003F8008DF807308DF806408DF8052000F026FDB1
:1004080003B030BD0813000818000020044B054A4B
:1004180003EB400352F820201B8A1383704700BF68
:100428000813000818000020044B054A03EB40039A
:1004380052F820201B8A5383704700BF0813000816
:1004480018000020054B064A52F8202003EB400014
:100458005369018A4B405361704700BF0813000875
:100468001800002030B50D46012187B00446084623
:1004780000F020FB01214FF4804000F053FB1848A6
:1004880006A900EB84000123002441F8103D00690F
:100498008DF80C408DF80F4000F0D8FC012D01D0EC
:1004A80007B030BD2146204600F020F9082304A8F3
:1004B8008DF8153004958DF814408DF8165000F01D
:1004C8008FF80F23062201A88DF807508DF8042015
:1004D8008DF805308DF8063000F01AF807B030BDF9
:1004E8001800002008B5044B03EB800001210069C7
:1004F80000F01AFD08BD00BF1800002040F0BF60E2
:10050800024B40F40030D860704700BF00ED00E0B7
:10051800C3785BB9037818485A09203203F01F03DF
:10052800012101FA03F340F822307047134BF0B46D
:10053800D9684778827804780F4EC943C1F30221FD
:10054800C1F10405EDB20F2307FA05F50B41EDB231
:1005580013402B4304F1604202F561421B01DBB2F8
:1005680082F800330378012203F01F015B098A40F7
:1005780046F82320F0BC704700E100E000ED00E001
:1005880021F0604121F07F01014B084398607047DA
:1005980000ED00E0044A136919B923EA000010616C
:1005A800704718431061704700ED00E0044A136873
:1005B80004280CBF43F0040323F0040313607047BE
:1005C80010E000E0044B054900221A605A609A6066
:1005D800DA605961704700BF003C0140FFFF7F00AF
:1005E800837933B31C4B02794179F0B407681E68EC
:1005F800FC4326401E605D6802F18042254002F5FA
:100608009E325D6014683C43146004689868E54352
:1006180028409860DA68102902EA0502DA6013D0E7
:1006280001F1804303F59E331A6814431C60F0BC43
:1006380070470379016803F1804303F59E331A6814
:1006480022EA01021A6070479A6822439A60DA68BF
:100658001443DC60F0BC7047003C014000230C22CE
:100668004271036003718371704700BF024A1369C6
:1006780018431061704700BF003C0140034B5B69A1
:10068800034214BF01200020704700BF003C014016
:10069800014B5861704700BF003C0140054B1A6888
:1006A8005B69034004D0024214BF01200020704758
:1006B80018467047003C0140014B5861704700BF25
:1006C800003C014008B501214FF4804000F070FA69
:1006D80000214FF48040BDE8084000F069BA00BF2F
:1006E800014B1860704700BF0038014001F0FC035F
:1006F80003F1804303F59C3301F0030110B4890032
:100708009C680F228A4024EA02029A609A685DF87F
:10071800044B884010439860704700BF014B186035
:10072800704700BFDC002742014B1860704700BFCC
:1007380000042742024B186AC0F30020704700BF2C
:100748000038014070130008000000206C040020ED
:1007580070040020900400200F4B10481A680021F4
:1007680042F0010230B41A6099601A680C4D0D4CC1
:1007780022F0A85222F410221A605D60C3F8844067
:10078800C3F888001A6822F480221A6030BCD96045
:10079800C3F88C10704700BF0038024000300024B6
:1007A8001030002400300020024B00221A7018700C
:1007B800704700BF0238024082B000230A4A019302
:1007C80002E0B3F5A04F08D0136813F4003F019B73
:1007D80003F101030193019BF3D0034B1868C0F3A5
:1007E800404002B0704700BF00380240034A136817
:1007F80023F0F80343EAC000106070470038024055
:10080800014B1860704700BF00004742064B0022AA
:1008180001281A701A7005D0042802D105221A700E
:10082800704770471870704770380240014B186065
:10083800704700BF800E474230B4029C064D40EA24
:10084800046001435B08013B41EA821242EA03402B
:10085800686030BC704700BF00380240014B186028
:10086800704700BF600047420907034B41EA801008
:10087800C3F88400704700BF00380240014B18607D
:10088800704700BF68004742120742EA0161034B04
:1008980041EA8010C3F88800704700BF0038024062
:1008A800014B1860704700BF70004742014B186049
:1008B800704700BF4C004742034A936823F0EC633B
:1008C800194308439060704700380240034A936810
:1008D80023F078431943084390607047003802407A
:1008E800034A936823F0030318439060704700BFDE
:1008F80000380240024B986800F00C00704700BFB7
:1009080000380240034A936823F0F00318439060CC
:10091800704700BF00380240034A936823F4E0534D
:1009280018439060704700BF00380240034A93683C
:1009380023F4604343EAC0009060704700380240E7
:1009480010B4214CA36803F00C03042B1BD0082B14
:100958001CD01E4B03601C4A1D499468C4F3031441
:100968000C5DE34043609468C4F382240C5D23FA71
:1009780004F4846092685DF8044BC2F342328A5CE6
:10098800D340C3607047134B0360E4E76368616852
:1009980013F4800F636818BF0E4C01F03F020CBFC0
:1009A8000A49B4FBF2F1C3F3881308BFB1FBF2F1B3
:1009B80001FB03F2044B5B68C3F3014301335B00A3
:1009C800B2FBF3F30360C6E7003802400024F400EA
:1009D8002C00002000127A0000F44073B3F5407F29
:1009E80009D108498B6820F0704223F4F81322F4E7
:1009F800407213438B60034A136FC0F30B00184314
:100A08001067704700380240014B1860704700BFFC
:100A18003C0E4742014B1860704700BF400E4742EA
:100A2800014B1860704700BF5C014742044AD2F886
:100A38008C3023F440131843C2F88C00704700BF71
:100A480000380240044AD2F88C3023F4400318439B
:100A5800C2F88C00704700BF00380240044AD2F840
:100A68008C30013823F01F030343C2F88C307047E1
:100A780000380240054AD2F88C30013823F4F85384
:100A880043EA0023C2F88C30704700BF00380240A8
:100A9800044AD2F88C3023F440331843C2F88C004F
:100AA800704700BF00380240014B1860704700BF14
:100AB800E011474229B9054A136B23EA0000106385
:100AC8007047024B1A6B1043186370470038024096
:100AD80029B9054A536B23EA000050637047024B5B
:100AE8005A6B1043586370470038024029B9054AC9
:100AF800936B23EA000090637047024B9A6B104394
:100B0800986370470038024029B9054A136C23EAF4
:100B1800000010647047024B1A6C10431864704749
:100B28000038024029B9054A536C23EA0000506492
:100B38007047024B5A6C10435864704700380240A3
:100B480029B9054A136923EA000010617047024B6E
:100B58001A691043186170470038024029B9054ADC
:100B6800536923EA000050617047024B5A691043E9
:100B7800586170470038024029B9054A936923EA49
:100B8800000090617047024B9A6910439861704762
:100B98000038024029B9054A136A23EA00001062A6
:100BA8007047024B1A6A10431862704700380240B7
:100BB80029B9054A536A23EA000050627047024B7C
:100BC8005A6A1043586270470038024029B9054AEA
:100BD800136D23EA000010657047024B1A6D10432D
:100BE800186570470038024029B9054A536D23EA51
:100BF800000050657047024B5A6D104358657047A6
:100C08000038024029B9054A936D23EA000090652F
:100C18007047024B9A6D1043986570470038024040
:100C280029B9054A136E23EA000010667047024B83
:100C38001A6E1043186670470038024029B9054AF1
:100C4800536E23EA000050667047024B5A6E1043F9
:100C58005866704700380240044A136F01280CBFD9
:100C680043F0080323F00803136770470038024075
:100C780029B9054A137823EA000010707047024B1F
:100C88001A781043187070470D3802404309012B39
:100C98000BD0022B094B0CBF1B6F5B6F00F01F00C2
:100CA80023FA00F000F001007047044B1B6800F0C5
:100CB8001F0023FA00F000F00100704700380240DE
:100CC800024A536F43F080735367704700380240FD
:100CD800034BDB68184214BF01200020704700BF97
:100CE80000380240014B1870704700BF0E380240B0
:100CF80008B54B4B98422AD04A4B984231D04A4BC0
:100D0800984238D0494B98423FD0494B984246D0F8
:100D1800484B98424DD0484B984254D0474B984244
:100D28005BD0474B984262D0464B98426BD0464BBB
:100D3800984200D008BD01214FF48060FFF700FF02
:100D480000214FF48060BDE80840FFF7F9BE01219B
:100D58000846FFF7F5FE00210120BDE80840FFF72F
:100D6800EFBE01210220FFF7EBFE00210220BDE8C3
:100D78000840FFF7E5BE01210420FFF7E1FE00214E
:100D88000420BDE80840FFF7DBBE01210820FFF77B
:100D9800D7FE00210820BDE80840FFF7D1BE012199
:100DA8001020FFF7CDFE00211020BDE80840FFF716
:100DB800C7BE01212020FFF7C3FE00212020BDE887
:100DC8000840FFF7BDBE01214020FFF7B9FE002112
:100DD8004020BDE80840FFF7B3BE01218020FFF79F
:100DE800AFFE00218020BDE80840FFF7A9BE012121
:100DF8004FF48070FFF7A4FE00214FF48070BDE827
:100E08000840FFF79DBE01214FF40070FFF798FEE0
:100E180000214FF40070BDE80840FFF791BE00BF05
:100E2800000002400004024000080240000C02409A
:100E3800001002400014024000180240001C02404A
:100E480000200240002402400028024000222DE930
:100E5800F0471346D1F800E001274FF0030C04E0F7
:100E68000133102B02F1020229D007FA03F434EA05
:100E78000E05F5D1D0F800800E790CFA02F5ED4395
:100E880008EA0508C0F80080D0F8009006FA02FACF
:100E9800013E4AEA0909012E0CFA02F8C0F800904E
:100EA8000FD9C568CC7925EA0805C560C56894409E
:100EB80001332C43102BC46002F10202D5D1BDE8E6
:100EC800F087866891F805903540856086688D7949
:100ED80009FA02F949EA06068660466826EA040421
:100EE8004460466805FA03F4A4B234434460D8E782
:100EF80000234FF6FF720260037143718371C3715F
:100F0800704700BF82B04FF480330193019B0B43BD
:100F18000193019BC361C161019BC361C3690193D3
:100F2800C369019302B070470369194214BF0120D5
:100F380000207047006980B2704700BF43691942BA
:100F480014BF012000207047406980B2704700BF7D
:100F580001837047418370470AB941837047018311
:100F6800704700BF4161704743695940416170470C
:100F7800CB0800EB830001F0070110B48900046A74
:100F88000F238B4024EA03030362036A5DF8044BD2
:100F98008A4042EA03010162704700BF30B502206F
:100FA80083B0FFF70FFA00210846FFF75BFA0C4CF5
:100FB80000250020FFF796FA70B90195019BA3421E
:100FC800F7DC019B01330193019BA342F9DD00206B
:100FD800FFF788FA0028F0D00220FFF733FAECE791
:100FE8001FA10700002103E00B4B5B58435004315D
:100FF8000A480B4B42189A42F6D30A4A02E00023E9
:1010080042F8043B084B9A42F9D3FFF721F900F064
:101018001FF8FFF7C3FF7047701300080000002097
:101028006C0400207004002090040020FEE70000FB
:1010380008B50021044600F08BF8044B1868C36B10
:1010480003B19847204600F085F900BF3C1300081B
:1010580070B50F4E0F4D761BB61018BF002405D083
:10106800013455F8043B9847A642F9D10A4E0B4D76
:10107800761B00F063F9B61018BF002406D00134BF
:1010880055F8043B9847A642F9D170BD70BD00BF22
:1010980064130008641300086C1300086413000844
:1010A80070B4840746D0541E002A41D0CDB20346FE
:1010B80002E0621EE4B3144603F8015B9A07F8D114
:1010C800032C2ED9CDB245EA05250F2C45EA054556
:1010D80019D903F110022646103E0F2E42F8105C73
:1010E80042F80C5C42F8085C42F8045C02F1100219
:1010F800F2D8A4F1100222F00F0204F00F0410320B
:10110800032C13440DD91E462246043A032A46F8F6
:10111800045BFAD8221F22F003020432134404F0BD
:1011280003042CB1C9B21C4403F8011BA342FBD130
:1011380070BC704714460346C2E700BF024B13B1A8
:10114800024800F071B87047000000003D12000826
:101158002DE9F04F324B85B01B68029303F5A47359
:1011680001900E460393029BD3F848713FB3DDF814
:101178000CA04FF00109D3467C68651E0ED40134DB
:1011880007EB84044FF00008E6B1D4F800319E4222
:1011980018D0013D6B1CA4F10404F5D1214B73B1A7
:1011A8007B68002B36D13B68002B34D03846CBF80F
:1011B8000030AFF30080DBF80070002FDCD105B001
:1011C800BDE8F08F7B682268013BAB420CBF7D60B5
:1011D800C4F80080002ADCD0D7F88811D7F804A01A
:1011E80009FA05F30B420FD0D7F88C110B420DD139
:1011F800D4F88010019890477B685345B3D1DBF849
:101208000030BB42C5D0AEE79047F5E7D4F8800080
:101218009047F1E73B68BB461F46002FACD1CEE7AD
:101228003C13000800000000002301461A46184637
:1012380000F014B838B5074D074C2C1BA41005D086
:10124800013C55F8043D9847002CF9D1BDE83840D9
:1012580000F07AB8701300086C1300082DE9F04705
:10126800254C2568D5F84841064688469246994651
:10127800C4B360681F2817DC431C76B104EB8005F3
:101288000122C5F888A0D4F8881182401143022EA3
:10129800C4F88811C5F808911ED00230636044F87C
:1012A80020800020BDE8F087144B03B34FF4C870CA
:1012B800AFF300800446D0B1D5F84831002780E864
:1012C8008800C5F8484138460123C4F88871C4F835
:1012D8008C71002EE1D0D1E7D4F88C110A43C4F800
:1012E8008C21DAE705F5A674C5F84841C1E74FF047
:1012F800FF30BDE8F08700BF3C1300080000000085
:1013080008000000080000000800000008000000B5
:1013180000100020004000800600000000000000CF
:1013280000000000010000000100000001000000B2
:10133800430000004000002000000000F8B500BF96
:10134800F8BC08BC9E467047F8B500BFF8BC08BC9E
:041358009E467047F6
:08135C0088EEFF7F0100000094
:0813640045110008AD0100086D
:04136C0089010008EB
:101370000000000000000000000000000102030463
:1013800006070809007A030A000C0240000C02401C
:10139000000C0240000C024000000240000000006F
:1013A000010203040102030406070809000000000B
:1013B000000000002C03002094030020FC03002008
:1013C000000000000000000000000000000000001D
:1013D000000000000000000000000000000000000D
:1013E00000000000381300080000000000000000AA
:1013F00000000000000000000000000000000000ED
:1014000000000000000000000000000000000000DC
:1014100000000000000000000000000000000000CC
:1014200000000000000000000000000000000000BC
:1014300000000000000000000000000000000000AC
:10144000000000000000000000000000000000009C
:10145000000000000000000001000000000000008B
:101460000E33CDAB34126DE6ECDE05000B00000050
:10147000000000000000000000000000000000006C
:10148000000000000000000000000000000000005C
:10149000000000000000000000000000000000004C
:1014A000000000000000000000000000000000003C
:0C17D000000000000000000040000020AD
:0417DC000000000009
:0400000508000FEDF3
:00000001FF
